{
  "_format": "hh-sol-artifact-1",
  "contractName": "FHECounter",
  "sourceName": "contracts/FHECounter.sol",
  "abi": [
    {
      "inputs": [
        {
          "internalType": "externalEuint32",
          "name": "inputEuint32",
          "type": "bytes32"
        },
        {
          "internalType": "bytes",
          "name": "inputProof",
          "type": "bytes"
        }
      ],
      "name": "decrement",
      "outputs": [],
      "stateMutability": "nonpayable",
      "type": "function"
    },
    {
      "inputs": [],
      "name": "getCount",
      "outputs": [
        {
          "internalType": "euint32",
          "name": "",
          "type": "bytes32"
        }
      ],
      "stateMutability": "view",
      "type": "function"
    },
    {
      "inputs": [
        {
          "internalType": "externalEuint32",
          "name": "inputEuint32",
          "type": "bytes32"
        },
        {
          "internalType": "bytes",
          "name": "inputProof",
          "type": "bytes"
        }
      ],
      "name": "increment",
      "outputs": [],
      "stateMutability": "nonpayable",
      "type": "function"
    },
    {
      "inputs": [],
      "name": "protocolId",
      "outputs": [
        {
          "internalType": "uint256",
          "name": "",
          "type": "uint256"
        }
      ],
      "stateMutability": "pure",
      "type": "function"
    }
  ],
  "bytecode": "0x608060405234801561001057600080fd5b5061002d61002261003260201b60201c565b61010860201b60201c565b6102f4565b61003a610274565b604051806080016040528073687820221192c5b662b25367f70076a37bc79b6c73ffffffffffffffffffffffffffffffffffffffff16815260200173848b0066793bcc60346da1f49049357399b8d59573ffffffffffffffffffffffffffffffffffffffff16815260200173a02cda4ca3a71d7c46997716f4283aa851c2881273ffffffffffffffffffffffffffffffffffffffff168152602001731364cbbf2cdf5032c47d8226a6f6fbd2afcdacac73ffffffffffffffffffffffffffffffffffffffff16815250905090565b6101178161011a60201b60201c565b50565b600061012a61024c60201b60201c565b905081600001518160000160006101000a81548173ffffffffffffffffffffffffffffffffffffffff021916908373ffffffffffffffffffffffffffffffffffffffff16021790555081602001518160010160006101000a81548173ffffffffffffffffffffffffffffffffffffffff021916908373ffffffffffffffffffffffffffffffffffffffff16021790555081604001518160020160006101000a81548173ffffffffffffffffffffffffffffffffffffffff021916908373ffffffffffffffffffffffffffffffffffffffff16021790555081606001518160030160006101000a81548173ffffffffffffffffffffffffffffffffffffffff021916908373ffffffffffffffffffffffffffffffffffffffff1602179055505050565b60007f9e7b61f58c47dc699ac88507c4f5bb9f121c03808c5676a8078fe583e4649700905090565b6040518060800160405280600073ffffffffffffffffffffffffffffffffffffffff168152602001600073ffffffffffffffffffffffffffffffffffffffff168152602001600073ffffffffffffffffffffffffffffffffffffffff168152602001600073ffffffffffffffffffffffffffffffffffffffff1681525090565b610bd5806103036000396000f3fe608060405234801561001057600080fd5b506004361061004c5760003560e01c80635941195d14610051578063a87d942c1461006d578063da1f12ab1461008b578063e055f8f9146100a9575b600080fd5b61006b6004803603810190610066919061080f565b6100c5565b005b610075610148565b6040516100829190610890565b60405180910390f35b610093610151565b6040516100a091906108c4565b60405180910390f35b6100c360048036038101906100be919061080f565b610160565b005b60006101158484848080601f016020809104026020016040519081016040528093929190818152602001838380828437600081840152601f19601f820116905080830192505050505050506101e3565b9050610123600054826101f9565b600081905550610134600054610243565b5061014160005433610257565b5050505050565b60008054905090565b600061015b61026c565b905090565b60006101b08484848080601f016020809104026020016040519081016040528093929190818152602001838380828437600081840152601f19601f820116905080830192505050505050506101e3565b90506101be60005482610276565b6000819055506101cf600054610243565b506101dc60005433610257565b5050505050565b60006101f1838360046102c0565b905092915050565b60006102048361040e565b61021557610212600061041e565b92505b61021e8261040e565b61022f5761022c600061041e565b91505b61023b83836000610438565b905092915050565b600061024f8230610510565b819050919050565b60006102638383610510565b82905092915050565b6000612711905090565b60006102818361040e565b6102925761028f600061041e565b92505b61029b8261040e565b6102ac576102a9600061041e565b91505b6102b8838360006105b2565b905092915050565b6000806102cb61068a565b90508060010160009054906101000a900473ffffffffffffffffffffffffffffffffffffffff1673ffffffffffffffffffffffffffffffffffffffff1663196d0b9b863387876040518563ffffffff1660e01b81526004016103309493929190610a36565b6020604051808303816000875af115801561034f573d6000803e3d6000fd5b505050506040513d601f19601f820116820180604052508101906103739190610aae565b91508060000160009054906101000a900473ffffffffffffffffffffffffffffffffffffffff1673ffffffffffffffffffffffffffffffffffffffff16633e395cec83336040518363ffffffff1660e01b81526004016103d4929190610adb565b600060405180830381600087803b1580156103ee57600080fd5b505af1158015610402573d6000803e3d6000fd5b50505050509392505050565b60008060001b8214159050919050565b60006104318263ffffffff1660046106b2565b9050919050565b600080821561044d57600160f81b9050610455565b600060f81b90505b600061045f61068a565b90508060010160009054906101000a900473ffffffffffffffffffffffffffffffffffffffff1673ffffffffffffffffffffffffffffffffffffffff1663117b2f388787856040518463ffffffff1660e01b81526004016104c293929190610b3f565b6020604051808303816000875af11580156104e1573d6000803e3d6000fd5b505050506040513d601f19601f820116820180604052508101906105059190610aae565b925050509392505050565b600061051a61068a565b90508060000160009054906101000a900473ffffffffffffffffffffffffffffffffffffffff1673ffffffffffffffffffffffffffffffffffffffff1663b9496b6284846040518363ffffffff1660e01b815260040161057b929190610adb565b600060405180830381600087803b15801561059557600080fd5b505af11580156105a9573d6000803e3d6000fd5b50505050505050565b60008082156105c757600160f81b90506105cf565b600060f81b90505b60006105d961068a565b90508060010160009054906101000a900473ffffffffffffffffffffffffffffffffffffffff1673ffffffffffffffffffffffffffffffffffffffff1663182b6d988787856040518463ffffffff1660e01b815260040161063c93929190610b3f565b6020604051808303816000875af115801561065b573d6000803e3d6000fd5b505050506040513d601f19601f8201168201806040525081019061067f9190610aae565b925050509392505050565b60007f9e7b61f58c47dc699ac88507c4f5bb9f121c03808c5676a8078fe583e4649700905090565b6000806106bd61068a565b90508060010160009054906101000a900473ffffffffffffffffffffffffffffffffffffffff1673ffffffffffffffffffffffffffffffffffffffff16639cd07acb85856040518363ffffffff1660e01b815260040161071e929190610b76565b6020604051808303816000875af115801561073d573d6000803e3d6000fd5b505050506040513d601f19601f820116820180604052508101906107619190610aae565b91505092915050565b600080fd5b600080fd5b6000819050919050565b61078781610774565b811461079257600080fd5b50565b6000813590506107a48161077e565b92915050565b600080fd5b600080fd5b600080fd5b60008083601f8401126107cf576107ce6107aa565b5b8235905067ffffffffffffffff8111156107ec576107eb6107af565b5b602083019150836001820283011115610808576108076107b4565b5b9250929050565b6000806000604084860312156108285761082761076a565b5b600061083686828701610795565b935050602084013567ffffffffffffffff8111156108575761085661076f565b5b610863868287016107b9565b92509250509250925092565b600061087a82610774565b9050919050565b61088a8161086f565b82525050565b60006020820190506108a56000830184610881565b92915050565b6000819050919050565b6108be816108ab565b82525050565b60006020820190506108d960008301846108b5565b92915050565b6108e881610774565b82525050565b600073ffffffffffffffffffffffffffffffffffffffff82169050919050565b6000610919826108ee565b9050919050565b6109298161090e565b82525050565b600081519050919050565b600082825260208201905092915050565b60005b8381101561096957808201518184015260208101905061094e565b60008484015250505050565b6000601f19601f8301169050919050565b60006109918261092f565b61099b818561093a565b93506109ab81856020860161094b565b6109b481610975565b840191505092915050565b7f4e487b7100000000000000000000000000000000000000000000000000000000600052602160045260246000fd5b605481106109ff576109fe6109bf565b5b50565b6000819050610a10826109ee565b919050565b6000610a2082610a02565b9050919050565b610a3081610a15565b82525050565b6000608082019050610a4b60008301876108df565b610a586020830186610920565b8181036040830152610a6a8185610986565b9050610a796060830184610a27565b95945050505050565b610a8b81610774565b8114610a9657600080fd5b50565b600081519050610aa881610a82565b92915050565b600060208284031215610ac457610ac361076a565b5b6000610ad284828501610a99565b91505092915050565b6000604082019050610af060008301856108df565b610afd6020830184610920565b9392505050565b60007fff0000000000000000000000000000000000000000000000000000000000000082169050919050565b610b3981610b04565b82525050565b6000606082019050610b5460008301866108df565b610b6160208301856108df565b610b6e6040830184610b30565b949350505050565b6000604082019050610b8b60008301856108b5565b610b986020830184610a27565b939250505056fea2646970667358221220878aa24a17f6175ba1164607aefccf3f43494ee1a7a4077e61c7ff67d534f49664736f6c63430008180033",
  "linkReferences": {},
  "deployedLinkReferences": {}
}